:100000000C9448000C9452000C9452000C94520032
:100010000C9452000C9452000C9452000C94520018
:100020000C9452000C9452000C9452000C94520008
:100030000C9452000C9452000C9452000C945200F8
:100040000C9452000C9452000C9452000C945200E8
:100050000C9452000C9452000C9452000C945200D8
:100060000C9452000C9452000C9452000C945200C8
:100070000C9452000C9452000C9452000C945200B8
:100080000C9452000C9452000C9452000C945200A8
:1000900011241FBECFEFCDBFDFE7DEBF0E945400AB
:1000A0000C9484000C9400000E946900C1E001C01F
:1000B000C1E0CF5F2FE788E391E02150804090407E
:1000C000E1F700C000008C2F0E947800CF3F89F735
:1000D000EFCF80ED80930104E0E4F9E0808180625D
:1000E00080838081846080838081816080830895A3
:1000F00080934409809143098823E4F7E0E0F4E029
:0C01000080E8858386830895F894FFCF83
:00000001FF
