S01C0000736174656C697461207A6164616E696520312E312E7372656305
S11300000C9448000C9465000C9465000C946500F5
S11300100C9465000C9465000C9465000C946500C8
S11300200C9465000C9465000C9465000C946500B8
S11300300C9465000C9465000C9465000C946500A8
S11300400C9465000C9465000C9465000C94650098
S11300500C9465000C9467000C9465000C94650086
S11300600C9465000C9465000C9465000C94650078
S11300700C9465000C9465000C9465000C94650068
S11300800C9465000C9465000C9465000C94650058
S113009011241FBECFEFCDBFDFE7DEBF18E7A0E01E
S11300A0B8E7E2E3F2E002C005900D92A030B10798
S11300B0D9F728E7A0E0B8E701C01D92A230B20743
S11300C0E1F70E94DA000C9417010C9400001F92CF
S11300D00F920FB60F9211242F933F938F939F93F8
S11300E08091000890910178813419F4911114C021
S11300F008C0843549F4913079F49091007884E50E
S113010089278093007843C08B3231F4923021F4F4
S1130110909100788BE2F4CF2DEF290F2330E0F09B
S1130120963041F430910078831309C080E88093BD
S113013007041EC0833529F4992319F30BC08335B2
S113014049F0843519F4913029F4D7CF8B3211F466
S11301509230F1F2253018F490910078D1CF983094
S113016059F490910078891307C084E08093470480
S11301708FEF809301780BC08FEF8093017880918B
S1130180040880688093040882E080934704809187
S113019001788F5F80930178809104088068809350
S11301A004089F918F913F912F910F900FBE0F9054
S11301B01F90189587E08093410480E880930104A0
S11301C080910708809307088091070880930708A7
S11301D080910708809307088091070883608093C3
S11301E0070881E08093010480910608806480936D
S11301F006088091060880688093060880910508A7
S113020080688093050883E896E0809308089093BB
S11302100908789481E0809347042FEF34E39CE04D
S1130220215030409040E1F700C00000F4CFF89432
S1050230FFCFFA
S9030000FC
