S01600005350492D4449474953435245454E2E7372656318
S11300000C9448000C9465000C9465000C946500F5
S11300100C9465000C9465000C9465000C946500C8
S11300200C9465000C9465000C9465000C946500B8
S11300300C9465000C9465000C9465000C946500A8
S11300400C9465000C9465000C9465000C94650098
S11300500C9465000C9465000C9465000C94650088
S11300600C9465000C9465000C9465000C94650078
S11300700C9465000C9465000C9465000C94650068
S11300800C9465000C9465000C9465000C94650058
S113009011241FBECFEFCDBFDFE7DEBF18E7A0E01E
S11300A0B8E7E6E2F2E002C005900D92A830B1078D
S11300B0D9F728E7A8E0B8E701C01D92A831B20734
S11300C0E1F70E94AD000C9411010C940000CF9351
S11300D060E089E00E94FE0061E08CE00E94FE0086
S11300E060E08FE00E94FE0067E08BE00E94FE006B
S11300F0C1E005C060E08C2F0E94FE00CF5FC930D4
S1130100C8F3CF910895E82FF0E03197A62FB0E01F
S1130110A150B8489C91EE0FFF1FE85FF74860813B
S11301207181690F711D608371830E94FE000895BF
S1130130E82FF0E03197A62FB0E0A150B8489C9189
S1130140EE0FFF1FE85FF74860817181691B710939
S1130150608371830E94FE0008950E94EC000E9457
S1130160670063E083E00E94830063E086E00E940E
S1130170830065E082E00E94830066E083E00E94E1
S1130180830066E084E00E94830066E085E00E94CC
S1130190830066E086E00E94830065E087E00E94B9
S11301A083002FE38DE093E0215080409040E1F7FD
S11301B000C0000063E083E00E9498002FEB87E218
S11301C099E0215080409040E1F700C0000063E0D6
S11301D083E00E948300FFCFE0E0F4E080ED8183C0
S11301E080E88583E0E4F9E0808180628083808117
S11301F084608083808181608083089590E89093F7
S1130200060480934409809143098823E4F76093AA
S11302104409809143098823E4F780E88093050426
S10902200895F894FFCFDD
S10B02260102040810204080CD
S9030000FC
