S01600005350492D4449474953435245454E2E7372656318
S11300000C9448000C945D000C945D000C945D000D
S11300100C945D000C945D000C945D000C945D00E8
S11300200C945D000C945D000C945D000C945D00D8
S11300300C945D000C945D000C945D000C945D00C8
S11300400C945D000C945D000C945D000C945D00B8
S11300500C945D000C945D000C945D000C945D00A8
S11300600C945D000C945D000C945D000C945D0098
S11300700C945D000C945D000C945D000C945D0088
S11300800C945D000C945D000C945D000C945D0078
S113009011241FBECFEFCDBFDFE7DEBF18E7A0E01E
S11300A0B8E7E8E7F1E002C005900D92A030B1078F
S11300B0D9F70E9488000C94BA000C940000CF93E6
S11300C060E089E00E94A70061E08CE00E94A70044
S11300D060E08FE00E94A70067E08BE00E94A70029
S11300E0C1E005C060E08C2F0E94A700CF5FC9303B
S11300F0C8F3CF9108952FE33DE093E021503040C1
S11301009040E1F700C0000060E00E94A70008955D
S11301100E9495000E945F006FEF84E00E94A70098
S113012068E084E00E947B00FFCFE0E0F4E080ED33
S1130130818380E88583E0E4F9E0808180628083C4
S1130140808184608083808181608083089590E8C9
S11301509093060480934409809143098823E4F72B
S113016060934409809143098823E4F780E88093ED
S10B017005040895F894FFCF83
S9030000FC
